{
  "contractName": "CourseFeedback",
  "abi": [
    {
      "constant": true,
      "inputs": [],
      "name": "studentsCount",
      "outputs": [
        {
          "name": "",
          "type": "uint256"
        }
      ],
      "payable": false,
      "stateMutability": "view",
      "type": "function"
    },
    {
      "constant": true,
      "inputs": [
        {
          "name": "",
          "type": "address"
        }
      ],
      "name": "voted",
      "outputs": [
        {
          "name": "",
          "type": "bool"
        }
      ],
      "payable": false,
      "stateMutability": "view",
      "type": "function"
    },
    {
      "constant": true,
      "inputs": [
        {
          "name": "",
          "type": "address"
        }
      ],
      "name": "feedbackRecord",
      "outputs": [
        {
          "name": "q1",
          "type": "uint256"
        },
        {
          "name": "q2",
          "type": "uint256"
        }
      ],
      "payable": false,
      "stateMutability": "view",
      "type": "function"
    },
    {
      "inputs": [],
      "payable": false,
      "stateMutability": "nonpayable",
      "type": "constructor"
    },
    {
      "constant": false,
      "inputs": [
        {
          "name": "numberOfStudents",
          "type": "uint256"
        }
      ],
      "name": "setNumberOfStudents",
      "outputs": [],
      "payable": false,
      "stateMutability": "nonpayable",
      "type": "function"
    },
    {
      "constant": false,
      "inputs": [
        {
          "name": "_studentid",
          "type": "uint256"
        },
        {
          "name": "_studentname",
          "type": "string"
        },
        {
          "name": "pk",
          "type": "address"
        }
      ],
      "name": "addStudent",
      "outputs": [],
      "payable": false,
      "stateMutability": "nonpayable",
      "type": "function"
    },
    {
      "constant": false,
      "inputs": [
        {
          "name": "a",
          "type": "uint256"
        },
        {
          "name": "b",
          "type": "uint256"
        }
      ],
      "name": "giveFeedback",
      "outputs": [
        {
          "name": "",
          "type": "uint256"
        }
      ],
      "payable": false,
      "stateMutability": "nonpayable",
      "type": "function"
    },
    {
      "constant": true,
      "inputs": [],
      "name": "checkFeedback",
      "outputs": [
        {
          "name": "",
          "type": "uint256"
        },
        {
          "name": "",
          "type": "uint256"
        }
      ],
      "payable": false,
      "stateMutability": "view",
      "type": "function"
    },
    {
      "constant": true,
      "inputs": [],
      "name": "getNoOfStudVoted",
      "outputs": [
        {
          "name": "",
          "type": "uint256"
        }
      ],
      "payable": false,
      "stateMutability": "view",
      "type": "function"
    },
    {
      "constant": true,
      "inputs": [],
      "name": "getTotalStud",
      "outputs": [
        {
          "name": "",
          "type": "uint256"
        }
      ],
      "payable": false,
      "stateMutability": "view",
      "type": "function"
    }
  ],
  "bytecode": "0x6080604052600060015534801561001557600080fd5b5033600260006101000a81548173ffffffffffffffffffffffffffffffffffffffff021916908373ffffffffffffffffffffffffffffffffffffffff1602179055506100706000610075640100000000026401000000009004565b6100db565b600260009054906101000a900473ffffffffffffffffffffffffffffffffffffffff1673ffffffffffffffffffffffffffffffffffffffff163373ffffffffffffffffffffffffffffffffffffffff161415156100d157600080fd5b8060008190555050565b61092f806100ea6000396000f3fe608060405260043610610099576000357c0100000000000000000000000000000000000000000000000000000000900463ffffffff16806324297d431461009e57806329b28e1f146100c95780634bf918ea14610104578063588579f91461012f57806368433a3a14610161578063705f1e851461018c578063aec2ccae146101e5578063e7d0f6ee1461024e578063ff61b5e314610340575b600080fd5b3480156100aa57600080fd5b506100b36103ac565b6040518082815260200191505060405180910390f35b3480156100d557600080fd5b50610102600480360360208110156100ec57600080fd5b81019080803590602001909291905050506103b6565b005b34801561011057600080fd5b5061011961041c565b6040518082815260200191505060405180910390f35b34801561013b57600080fd5b50610144610425565b604051808381526020018281526020019250505060405180910390f35b34801561016d57600080fd5b50610176610515565b6040518082815260200191505060405180910390f35b34801561019857600080fd5b506101cf600480360360408110156101af57600080fd5b81019080803590602001909291908035906020019092919050505061051b565b6040518082815260200191505060405180910390f35b3480156101f157600080fd5b506102346004803603602081101561020857600080fd5b81019080803573ffffffffffffffffffffffffffffffffffffffff169060200190929190505050610700565b604051808215151515815260200191505060405180910390f35b34801561025a57600080fd5b5061033e6004803603606081101561027157600080fd5b81019080803590602001909291908035906020019064010000000081111561029857600080fd5b8201836020820111156102aa57600080fd5b803590602001918460018302840111640100000000831117156102cc57600080fd5b91908080601f016020809104026020016040519081016040528093929190818152602001838380828437600081840152601f19601f820116905080830192505050505050509192919290803573ffffffffffffffffffffffffffffffffffffffff169060200190929190505050610720565b005b34801561034c57600080fd5b5061038f6004803603602081101561036357600080fd5b81019080803573ffffffffffffffffffffffffffffffffffffffff16906020019092919050505061083a565b604051808381526020018281526020019250505060405180910390f35b6000600154905090565b600260009054906101000a900473ffffffffffffffffffffffffffffffffffffffff1673ffffffffffffffffffffffffffffffffffffffff163373ffffffffffffffffffffffffffffffffffffffff1614151561041257600080fd5b8060008190555050565b60008054905090565b60008060011515600460003373ffffffffffffffffffffffffffffffffffffffff1673ffffffffffffffffffffffffffffffffffffffff16815260200190815260200160002060009054906101000a900460ff16151514151561048757600080fd5b600560003373ffffffffffffffffffffffffffffffffffffffff1673ffffffffffffffffffffffffffffffffffffffff16815260200190815260200160002060000154600560003373ffffffffffffffffffffffffffffffffffffffff1673ffffffffffffffffffffffffffffffffffffffff16815260200190815260200160002060010154915091509091565b60005481565b600060011515600360003373ffffffffffffffffffffffffffffffffffffffff1673ffffffffffffffffffffffffffffffffffffffff16815260200190815260200160002060020160009054906101000a900460ff16151514151561057f57600080fd5b60001515600460003373ffffffffffffffffffffffffffffffffffffffff1673ffffffffffffffffffffffffffffffffffffffff16815260200190815260200160002060009054906101000a900460ff1615151415156105de57600080fd5b604080519081016040528084815260200183815250600560003373ffffffffffffffffffffffffffffffffffffffff1673ffffffffffffffffffffffffffffffffffffffff16815260200190815260200160002060008201518160000155602082015181600101559050506001600460003373ffffffffffffffffffffffffffffffffffffffff1673ffffffffffffffffffffffffffffffffffffffff16815260200190815260200160002060006101000a81548160ff02191690831515021790555033604051602001808273ffffffffffffffffffffffffffffffffffffffff1673ffffffffffffffffffffffffffffffffffffffff1681526020019150506040516020818303038152906040528051906020012060019004905092915050565b60046020528060005260406000206000915054906101000a900460ff1681565b600260009054906101000a900473ffffffffffffffffffffffffffffffffffffffff1673ffffffffffffffffffffffffffffffffffffffff163373ffffffffffffffffffffffffffffffffffffffff1614151561077c57600080fd5b60606040519081016040528084815260200183815260200160011515815250600360008373ffffffffffffffffffffffffffffffffffffffff1673ffffffffffffffffffffffffffffffffffffffff16815260200190815260200160002060008201518160000155602082015181600101908051906020019061080092919061085e565b5060408201518160020160006101000a81548160ff0219169083151502179055509050506000808154809291906001019190505550505050565b60056020528060005260406000206000915090508060000154908060010154905082565b828054600181600116156101000203166002900490600052602060002090601f016020900481019282601f1061089f57805160ff19168380011785556108cd565b828001600101855582156108cd579182015b828111156108cc5782518255916020019190600101906108b1565b5b5090506108da91906108de565b5090565b61090091905b808211156108fc5760008160009055506001016108e4565b5090565b9056fea165627a7a72305820a8e6920e42c07bbcb69944e2f7b3d5f147d829798ebf7d181ce248321ac4de540029",
  "source": "pragma solidity >=0.4.21 <0.6.0;\n\n// This contract will be the backend smart contract for the course-feedback system, to interact with our blockchain\ncontract CourseFeedback{\n\n\n  // Store students Count\n  uint public studentsCount;\n  //Store number of students who have voted till now\n  uint numberOfVotedStudents=0;\n  // Store admin credentials\n  address admin;\n\n  modifier onlyAdmin() {\n    require (msg.sender==admin);\n    _;\n  }\n\n  //structure to store candidate's details\n  struct Student{\n    uint studentID;\n    string studentname;\n    bool validStud;\n    //feedback\n  }\n\n  //Store the Feedback received from the form\n  struct Feedback {\n    uint q1;\n    uint q2;\n    //Question variables go here\n  }\n\n\n  //Mappings\n  // mapping of all the students :studentsList\n  mapping (address=>Student) studentsList;\n  //voted\n  mapping (address=>bool) public voted;\n  //mapping to store feedback\n  mapping ( address => Feedback) public feedbackRecord;\n\n\n  //constructor\n  constructor() public {\n    //initialise admin credentials\n    admin=msg.sender;\n    setNumberOfStudents(0);\n  }\n\n\n  function setNumberOfStudents (uint numberOfStudents) onlyAdmin public{\n    //sets the number of students allowed to give reviews\n    studentsCount=numberOfStudents;\n  }\n\n\n  //add students\n  function addStudent (uint _studentid,string memory _studentname, address pk) onlyAdmin public {\n    //making a new student struct\n    studentsList[pk]=Student(_studentid,_studentname,true);\n    //increase numberOfVotedStudents\n    studentsCount++;\n  }\n\n\n\n  //give feedback\n  function giveFeedback (uint a, uint b) public returns(uint) {\n      // requires that they are in studentsList\n      require(studentsList[msg.sender].validStud==true);\n      // requires that they haven't given feedback before\n      require(voted[msg.sender]==false);\n      //add to feedbackRecord\n      feedbackRecord[msg.sender] = Feedback(a,b);\n      // update voted\n      voted[msg.sender]=true;\n      return uint(keccak256(abi.encode(msg.sender)));\n  }\n\n\n  // check feedback\n  function checkFeedback() public view returns (uint, uint){\n      //chekc if the student voted\n      require(voted[msg.sender]== true);\n      //check feedbackRecord\n      return (feedbackRecord[msg.sender].q1,feedbackRecord[msg.sender].q2);\n\n  }\n\n  function getNoOfStudVoted() public view returns (uint)\n  {\n    return numberOfVotedStudents;\n  }\n\n  function getTotalStud() public view returns (uint)\n  {\n    return studentsCount;\n  }\n\n}\n\n",
  "sourcePath": "/home/atharv/GitHub_Projects/CourseFeedbackSystem/contracts/CourseFeedbackSystem.sol",
  "compiler": {
    "name": "solc",
    "version": "0.5.0+commit.1d4f565a.Emscripten.clang"
  },
  "schemaVersion": "3.0.2",
  "updatedAt": "2019-04-03T16:04:00.219Z",
  "devdoc": {
    "methods": {}
  },
  "userdoc": {
    "methods": {}
  }
}