{
  "contractName": "CourseFeedbackSystem",
  "abi": [
    {
      "constant": true,
      "inputs": [
        {
          "name": "",
          "type": "address"
        }
      ],
      "name": "voted",
      "outputs": [
        {
          "name": "",
          "type": "bool"
        }
      ],
      "payable": false,
      "stateMutability": "view",
      "type": "function"
    },
    {
      "constant": true,
      "inputs": [
        {
          "name": "",
          "type": "address"
        }
      ],
      "name": "feedbackRecord",
      "outputs": [
        {
          "name": "q1",
          "type": "uint256"
        },
        {
          "name": "q2",
          "type": "uint256"
        }
      ],
      "payable": false,
      "stateMutability": "view",
      "type": "function"
    },
    {
      "inputs": [],
      "payable": false,
      "stateMutability": "nonpayable",
      "type": "constructor"
    },
    {
      "constant": false,
      "inputs": [
        {
          "name": "numberOfStudents",
          "type": "uint256"
        }
      ],
      "name": "setNumberOfStudents",
      "outputs": [],
      "payable": false,
      "stateMutability": "nonpayable",
      "type": "function"
    },
    {
      "constant": false,
      "inputs": [
        {
          "name": "_studentid",
          "type": "uint256"
        },
        {
          "name": "_studentname",
          "type": "string"
        },
        {
          "name": "pk",
          "type": "address"
        }
      ],
      "name": "addStudent",
      "outputs": [],
      "payable": false,
      "stateMutability": "nonpayable",
      "type": "function"
    },
    {
      "constant": false,
      "inputs": [
        {
          "name": "a",
          "type": "uint256"
        },
        {
          "name": "b",
          "type": "uint256"
        }
      ],
      "name": "giveFeedback",
      "outputs": [
        {
          "name": "",
          "type": "uint256"
        }
      ],
      "payable": false,
      "stateMutability": "nonpayable",
      "type": "function"
    },
    {
      "constant": true,
      "inputs": [],
      "name": "checkFeedbackQ1",
      "outputs": [
        {
          "name": "",
          "type": "uint256"
        }
      ],
      "payable": false,
      "stateMutability": "view",
      "type": "function"
    },
    {
      "constant": true,
      "inputs": [],
      "name": "checkFeedbackQ2",
      "outputs": [
        {
          "name": "",
          "type": "uint256"
        }
      ],
      "payable": false,
      "stateMutability": "view",
      "type": "function"
    },
    {
      "constant": true,
      "inputs": [],
      "name": "getNoOfStudVoted",
      "outputs": [
        {
          "name": "",
          "type": "uint256"
        }
      ],
      "payable": false,
      "stateMutability": "view",
      "type": "function"
    },
    {
      "constant": true,
      "inputs": [],
      "name": "getTotalStud",
      "outputs": [
        {
          "name": "",
          "type": "uint256"
        }
      ],
      "payable": false,
      "stateMutability": "view",
      "type": "function"
    },
    {
      "constant": true,
      "inputs": [],
      "name": "returnTotalFeedbackQ1",
      "outputs": [
        {
          "name": "",
          "type": "uint256"
        }
      ],
      "payable": false,
      "stateMutability": "view",
      "type": "function"
    },
    {
      "constant": true,
      "inputs": [],
      "name": "returnTotalFeedbackQ2",
      "outputs": [
        {
          "name": "",
          "type": "uint256"
        }
      ],
      "payable": false,
      "stateMutability": "view",
      "type": "function"
    }
  ],
  "bytecode": "0x608060405260006001556000600355600060045534801561001f57600080fd5b5033600260006101000a81548173ffffffffffffffffffffffffffffffffffffffff021916908373ffffffffffffffffffffffffffffffffffffffff16021790555061007a600061007f640100000000026401000000009004565b6100e5565b600260009054906101000a900473ffffffffffffffffffffffffffffffffffffffff1673ffffffffffffffffffffffffffffffffffffffff163373ffffffffffffffffffffffffffffffffffffffff161415156100db57600080fd5b8060008190555050565b610c4d806100f46000396000f3fe6080604052600436106100af576000357c0100000000000000000000000000000000000000000000000000000000900463ffffffff16806324297d43146100b457806329b28e1f146100df5780634bafc4f71461011a5780634bf918ea14610145578063705f1e85146101705780638855ac41146101c9578063a7ac28d4146101f4578063aec2ccae1461021f578063b7c01f5614610288578063e7d0f6ee146102b3578063ff61b5e3146103a5575b600080fd5b3480156100c057600080fd5b506100c9610411565b6040518082815260200191505060405180910390f35b3480156100eb57600080fd5b506101186004803603602081101561010257600080fd5b8101908080359060200190929190505050610477565b005b34801561012657600080fd5b5061012f6104dd565b6040518082815260200191505060405180910390f35b34801561015157600080fd5b5061015a610543565b6040518082815260200191505060405180910390f35b34801561017c57600080fd5b506101b36004803603604081101561019357600080fd5b8101908080359060200190929190803590602001909291905050506105a9565b6040518082815260200191505060405180910390f35b3480156101d557600080fd5b506101de6107ae565b6040518082815260200191505060405180910390f35b34801561020057600080fd5b506102096108b3565b6040518082815260200191505060405180910390f35b34801561022b57600080fd5b5061026e6004803603602081101561024257600080fd5b81019080803573ffffffffffffffffffffffffffffffffffffffff1690602001909291905050506109b8565b604051808215151515815260200191505060405180910390f35b34801561029457600080fd5b5061029d6109d8565b6040518082815260200191505060405180910390f35b3480156102bf57600080fd5b506103a3600480360360608110156102d657600080fd5b8101908080359060200190929190803590602001906401000000008111156102fd57600080fd5b82018360208201111561030f57600080fd5b8035906020019184600183028401116401000000008311171561033157600080fd5b91908080601f016020809104026020016040519081016040528093929190818152602001838380828437600081840152601f19601f820116905080830192505050505050509192919290803573ffffffffffffffffffffffffffffffffffffffff169060200190929190505050610a3e565b005b3480156103b157600080fd5b506103f4600480360360208110156103c857600080fd5b81019080803573ffffffffffffffffffffffffffffffffffffffff169060200190929190505050610b58565b604051808381526020018281526020019250505060405180910390f35b6000600260009054906101000a900473ffffffffffffffffffffffffffffffffffffffff1673ffffffffffffffffffffffffffffffffffffffff163373ffffffffffffffffffffffffffffffffffffffff1614151561046f57600080fd5b600154905090565b600260009054906101000a900473ffffffffffffffffffffffffffffffffffffffff1673ffffffffffffffffffffffffffffffffffffffff163373ffffffffffffffffffffffffffffffffffffffff161415156104d357600080fd5b8060008190555050565b6000600260009054906101000a900473ffffffffffffffffffffffffffffffffffffffff1673ffffffffffffffffffffffffffffffffffffffff163373ffffffffffffffffffffffffffffffffffffffff1614151561053b57600080fd5b600454905090565b6000600260009054906101000a900473ffffffffffffffffffffffffffffffffffffffff1673ffffffffffffffffffffffffffffffffffffffff163373ffffffffffffffffffffffffffffffffffffffff161415156105a157600080fd5b600054905090565b600060011515600560003373ffffffffffffffffffffffffffffffffffffffff1673ffffffffffffffffffffffffffffffffffffffff16815260200190815260200160002060020160009054906101000a900460ff16151514151561060d57600080fd5b60001515600660003373ffffffffffffffffffffffffffffffffffffffff1673ffffffffffffffffffffffffffffffffffffffff16815260200190815260200160002060009054906101000a900460ff16151514151561066c57600080fd5b604080519081016040528084815260200183815250600760003373ffffffffffffffffffffffffffffffffffffffff1673ffffffffffffffffffffffffffffffffffffffff16815260200190815260200160002060008201518160000155602082015181600101559050506001600660003373ffffffffffffffffffffffffffffffffffffffff1673ffffffffffffffffffffffffffffffffffffffff16815260200190815260200160002060006101000a81548160ff021916908315150217905550826003600082825401925050819055508160046000828254019250508190555033604051602001808273ffffffffffffffffffffffffffffffffffffffff1673ffffffffffffffffffffffffffffffffffffffff1681526020019150506040516020818303038152906040528051906020012060019004905092915050565b6000600260009054906101000a900473ffffffffffffffffffffffffffffffffffffffff1673ffffffffffffffffffffffffffffffffffffffff163373ffffffffffffffffffffffffffffffffffffffff1614151561080c57600080fd5b60011515600660003373ffffffffffffffffffffffffffffffffffffffff1673ffffffffffffffffffffffffffffffffffffffff16815260200190815260200160002060009054906101000a900460ff16151514151561086b57600080fd5b600760003373ffffffffffffffffffffffffffffffffffffffff1673ffffffffffffffffffffffffffffffffffffffff16815260200190815260200160002060000154905090565b6000600260009054906101000a900473ffffffffffffffffffffffffffffffffffffffff1673ffffffffffffffffffffffffffffffffffffffff163373ffffffffffffffffffffffffffffffffffffffff1614151561091157600080fd5b60011515600660003373ffffffffffffffffffffffffffffffffffffffff1673ffffffffffffffffffffffffffffffffffffffff16815260200190815260200160002060009054906101000a900460ff16151514151561097057600080fd5b600760003373ffffffffffffffffffffffffffffffffffffffff1673ffffffffffffffffffffffffffffffffffffffff16815260200190815260200160002060010154905090565b60066020528060005260406000206000915054906101000a900460ff1681565b6000600260009054906101000a900473ffffffffffffffffffffffffffffffffffffffff1673ffffffffffffffffffffffffffffffffffffffff163373ffffffffffffffffffffffffffffffffffffffff16141515610a3657600080fd5b600354905090565b600260009054906101000a900473ffffffffffffffffffffffffffffffffffffffff1673ffffffffffffffffffffffffffffffffffffffff163373ffffffffffffffffffffffffffffffffffffffff16141515610a9a57600080fd5b60606040519081016040528084815260200183815260200160011515815250600560008373ffffffffffffffffffffffffffffffffffffffff1673ffffffffffffffffffffffffffffffffffffffff168152602001908152602001600020600082015181600001556020820151816001019080519060200190610b1e929190610b7c565b5060408201518160020160006101000a81548160ff0219169083151502179055509050506000808154809291906001019190505550505050565b60076020528060005260406000206000915090508060000154908060010154905082565b828054600181600116156101000203166002900490600052602060002090601f016020900481019282601f10610bbd57805160ff1916838001178555610beb565b82800160010185558215610beb579182015b82811115610bea578251825591602001919060010190610bcf565b5b509050610bf89190610bfc565b5090565b610c1e91905b80821115610c1a576000816000905550600101610c02565b5090565b9056fea165627a7a72305820f02ffe061c604ba476e2842b071da78fcfbf084dd82d8affb26a88b2454e81990029",
  "source": "pragma solidity >=0.4.21 <0.6.0;\n\n// This contract will be the backend smart contract for the course-feedback system, to interact with our blockchain\ncontract CourseFeedbackSystem{\n\n\n  // Store students Count\n  uint private studentsCount;\n  //Store number of students who have voted till now\n  uint private numberOfVotedStudents=0;\n  // Store admin credentials\n  address private admin;\n\n  uint private totalQ1=0;\n  uint private totalQ2=0;\n\n  modifier onlyAdmin() {\n    require (msg.sender==admin);\n    _;\n  }\n\n  //structure to store candidate's details\n  struct Student{\n    uint studentID;\n    string studentname;\n    bool validStud;\n    //feedback\n  }\n\n  //Store the Feedback received from the form\n  struct Feedback {\n    uint q1;\n    uint q2;\n    //Question variables go here\n  }\n\n\n  //Mappings\n  // mapping of all the students :studentsList\n  mapping (address=>Student) studentsList;\n  //voted\n  mapping (address=>bool) public voted;\n  //mapping to store feedback\n  mapping ( address => Feedback) public feedbackRecord;\n\n\n  //constructor\n  constructor() public {\n    //initialise admin credentials\n    admin=msg.sender;\n    setNumberOfStudents(0);\n  }\n\n\n  function setNumberOfStudents (uint numberOfStudents) onlyAdmin public{\n    //sets the number of students allowed to give reviews\n    studentsCount=numberOfStudents;\n  }\n\n\n  //add students\n  function addStudent (uint _studentid,string memory _studentname, address pk) onlyAdmin public{\n    //making a new student struct\n    studentsList[pk]=Student(_studentid,_studentname,true);\n    //increase numberOfVotedStudents\n    studentsCount++;\n  }\n\n\n\n  //give feedback\n  function giveFeedback (uint a, uint b) public returns(uint) {\n      // requires that they are in studentsList\n      require(studentsList[msg.sender].validStud==true);\n      // requires that they haven't given feedback before\n      require(voted[msg.sender]==false);\n      //add to feedbackRecord\n      feedbackRecord[msg.sender] = Feedback(a,b);\n      // update voted\n      voted[msg.sender]=true;\n      totalQ1+=a;\n      totalQ2+=b;\n      return uint(keccak256(abi.encode(msg.sender)));\n  }\n\n\n  // check feedback\n  function checkFeedbackQ1() public view onlyAdmin returns (uint){\n      //check if the student voted\n      require(voted[msg.sender]== true);\n      //check feedbackRecord\n      return (feedbackRecord[msg.sender].q1);\n\n  }\n\n  function checkFeedbackQ2() public view onlyAdmin returns (uint){\n      //check if the student voted\n      require(voted[msg.sender]== true);\n      //check feedbackRecord\n      return (feedbackRecord[msg.sender].q2);\n\n  }\n\n  function getNoOfStudVoted() public view onlyAdmin returns (uint)\n  {\n    return numberOfVotedStudents;\n  }\n\n  function getTotalStud() public view onlyAdmin returns (uint)\n  {\n    return studentsCount;\n  }\n  \n  function returnTotalFeedbackQ1() public view onlyAdmin returns(uint) {\n  \treturn totalQ1;\n  }\n\n  function returnTotalFeedbackQ2() public view onlyAdmin returns (uint) {\n  \treturn totalQ2;\n  }\n\n}\n",
  "sourcePath": "/home/atharv/GitHub_Projects/CourseFeedbackSystem/contracts/CourseFeedbackSystem.sol",
  "compiler": {
    "name": "solc",
    "version": "0.5.0+commit.1d4f565a.Emscripten.clang"
  },
  "schemaVersion": "3.0.2",
  "updatedAt": "2019-04-09T23:06:20.580Z",
  "devdoc": {
    "methods": {}
  },
  "userdoc": {
    "methods": {}
  }
}